{
  "address": "0x1b94f7f043547a897057E205dcf8EeaD6dA545d5",
  "abi": [
    {
      "inputs": [
        {
          "internalType": "address",
          "name": "_endpoint",
          "type": "address"
        },
        {
          "internalType": "address",
          "name": "_delegate",
          "type": "address"
        },
        {
          "internalType": "contract IERC20",
          "name": "_asset",
          "type": "address"
        }
      ],
      "stateMutability": "nonpayable",
      "type": "constructor"
    },
    {
      "inputs": [
        {
          "internalType": "address",
          "name": "target",
          "type": "address"
        }
      ],
      "name": "AddressEmptyCode",
      "type": "error"
    },
    {
      "inputs": [
        {
          "internalType": "address",
          "name": "account",
          "type": "address"
        }
      ],
      "name": "AddressInsufficientBalance",
      "type": "error"
    },
    {
      "inputs": [],
      "name": "FailedInnerCall",
      "type": "error"
    },
    {
      "inputs": [],
      "name": "InvalidDelegate",
      "type": "error"
    },
    {
      "inputs": [],
      "name": "InvalidEndpointCall",
      "type": "error"
    },
    {
      "inputs": [],
      "name": "LzTokenUnavailable",
      "type": "error"
    },
    {
      "inputs": [
        {
          "internalType": "uint32",
          "name": "eid",
          "type": "uint32"
        }
      ],
      "name": "NoPeer",
      "type": "error"
    },
    {
      "inputs": [
        {
          "internalType": "uint256",
          "name": "msgValue",
          "type": "uint256"
        }
      ],
      "name": "NotEnoughNative",
      "type": "error"
    },
    {
      "inputs": [
        {
          "internalType": "address",
          "name": "addr",
          "type": "address"
        }
      ],
      "name": "OnlyEndpoint",
      "type": "error"
    },
    {
      "inputs": [
        {
          "internalType": "uint32",
          "name": "eid",
          "type": "uint32"
        },
        {
          "internalType": "bytes32",
          "name": "sender",
          "type": "bytes32"
        }
      ],
      "name": "OnlyPeer",
      "type": "error"
    },
    {
      "inputs": [
        {
          "internalType": "address",
          "name": "owner",
          "type": "address"
        }
      ],
      "name": "OwnableInvalidOwner",
      "type": "error"
    },
    {
      "inputs": [
        {
          "internalType": "address",
          "name": "account",
          "type": "address"
        }
      ],
      "name": "OwnableUnauthorizedAccount",
      "type": "error"
    },
    {
      "inputs": [
        {
          "internalType": "address",
          "name": "token",
          "type": "address"
        }
      ],
      "name": "SafeERC20FailedOperation",
      "type": "error"
    },
    {
      "anonymous": false,
      "inputs": [
        {
          "indexed": true,
          "internalType": "uint32",
          "name": "targetChainId",
          "type": "uint32"
        },
        {
          "indexed": true,
          "internalType": "address",
          "name": "to",
          "type": "address"
        },
        {
          "indexed": false,
          "internalType": "uint256",
          "name": "amount",
          "type": "uint256"
        },
        {
          "indexed": false,
          "internalType": "uint256",
          "name": "id",
          "type": "uint256"
        }
      ],
      "name": "BridgingInitiated",
      "type": "event"
    },
    {
      "anonymous": false,
      "inputs": [
        {
          "indexed": true,
          "internalType": "uint32",
          "name": "srcChainId",
          "type": "uint32"
        },
        {
          "indexed": true,
          "internalType": "address",
          "name": "to",
          "type": "address"
        },
        {
          "indexed": false,
          "internalType": "uint256",
          "name": "amount",
          "type": "uint256"
        },
        {
          "indexed": false,
          "internalType": "uint256",
          "name": "id",
          "type": "uint256"
        }
      ],
      "name": "MintMessageReceived",
      "type": "event"
    },
    {
      "anonymous": false,
      "inputs": [
        {
          "indexed": true,
          "internalType": "address",
          "name": "previousOwner",
          "type": "address"
        },
        {
          "indexed": true,
          "internalType": "address",
          "name": "newOwner",
          "type": "address"
        }
      ],
      "name": "OwnershipTransferred",
      "type": "event"
    },
    {
      "anonymous": false,
      "inputs": [
        {
          "indexed": false,
          "internalType": "uint32",
          "name": "eid",
          "type": "uint32"
        },
        {
          "indexed": false,
          "internalType": "bytes32",
          "name": "peer",
          "type": "bytes32"
        }
      ],
      "name": "PeerSet",
      "type": "event"
    },
    {
      "inputs": [
        {
          "internalType": "contract IERC20",
          "name": "_asset",
          "type": "address"
        }
      ],
      "name": "addAsset",
      "outputs": [],
      "stateMutability": "nonpayable",
      "type": "function"
    },
    {
      "inputs": [
        {
          "components": [
            {
              "internalType": "uint32",
              "name": "srcEid",
              "type": "uint32"
            },
            {
              "internalType": "bytes32",
              "name": "sender",
              "type": "bytes32"
            },
            {
              "internalType": "uint64",
              "name": "nonce",
              "type": "uint64"
            }
          ],
          "internalType": "struct Origin",
          "name": "origin",
          "type": "tuple"
        }
      ],
      "name": "allowInitializePath",
      "outputs": [
        {
          "internalType": "bool",
          "name": "",
          "type": "bool"
        }
      ],
      "stateMutability": "view",
      "type": "function"
    },
    {
      "inputs": [
        {
          "internalType": "uint256",
          "name": "",
          "type": "uint256"
        }
      ],
      "name": "assets",
      "outputs": [
        {
          "internalType": "contract IERC20",
          "name": "",
          "type": "address"
        }
      ],
      "stateMutability": "view",
      "type": "function"
    },
    {
      "inputs": [
        {
          "internalType": "uint32",
          "name": "_dstEid",
          "type": "uint32"
        },
        {
          "internalType": "address",
          "name": "_to",
          "type": "address"
        },
        {
          "internalType": "uint256",
          "name": "_amount",
          "type": "uint256"
        },
        {
          "internalType": "uint256",
          "name": "_id",
          "type": "uint256"
        },
        {
          "internalType": "bytes",
          "name": "_options",
          "type": "bytes"
        }
      ],
      "name": "bridgeToken",
      "outputs": [
        {
          "components": [
            {
              "internalType": "bytes32",
              "name": "guid",
              "type": "bytes32"
            },
            {
              "internalType": "uint64",
              "name": "nonce",
              "type": "uint64"
            },
            {
              "components": [
                {
                  "internalType": "uint256",
                  "name": "nativeFee",
                  "type": "uint256"
                },
                {
                  "internalType": "uint256",
                  "name": "lzTokenFee",
                  "type": "uint256"
                }
              ],
              "internalType": "struct MessagingFee",
              "name": "fee",
              "type": "tuple"
            }
          ],
          "internalType": "struct MessagingReceipt",
          "name": "receipt",
          "type": "tuple"
        }
      ],
      "stateMutability": "payable",
      "type": "function"
    },
    {
      "inputs": [],
      "name": "endpoint",
      "outputs": [
        {
          "internalType": "contract ILayerZeroEndpointV2",
          "name": "",
          "type": "address"
        }
      ],
      "stateMutability": "view",
      "type": "function"
    },
    {
      "inputs": [
        {
          "components": [
            {
              "internalType": "uint32",
              "name": "srcEid",
              "type": "uint32"
            },
            {
              "internalType": "bytes32",
              "name": "sender",
              "type": "bytes32"
            },
            {
              "internalType": "uint64",
              "name": "nonce",
              "type": "uint64"
            }
          ],
          "internalType": "struct Origin",
          "name": "",
          "type": "tuple"
        },
        {
          "internalType": "bytes",
          "name": "",
          "type": "bytes"
        },
        {
          "internalType": "address",
          "name": "_sender",
          "type": "address"
        }
      ],
      "name": "isComposeMsgSender",
      "outputs": [
        {
          "internalType": "bool",
          "name": "",
          "type": "bool"
        }
      ],
      "stateMutability": "view",
      "type": "function"
    },
    {
      "inputs": [
        {
          "components": [
            {
              "internalType": "uint32",
              "name": "srcEid",
              "type": "uint32"
            },
            {
              "internalType": "bytes32",
              "name": "sender",
              "type": "bytes32"
            },
            {
              "internalType": "uint64",
              "name": "nonce",
              "type": "uint64"
            }
          ],
          "internalType": "struct Origin",
          "name": "_origin",
          "type": "tuple"
        },
        {
          "internalType": "bytes32",
          "name": "_guid",
          "type": "bytes32"
        },
        {
          "internalType": "bytes",
          "name": "_message",
          "type": "bytes"
        },
        {
          "internalType": "address",
          "name": "_executor",
          "type": "address"
        },
        {
          "internalType": "bytes",
          "name": "_extraData",
          "type": "bytes"
        }
      ],
      "name": "lzReceive",
      "outputs": [],
      "stateMutability": "payable",
      "type": "function"
    },
    {
      "inputs": [
        {
          "internalType": "uint32",
          "name": "",
          "type": "uint32"
        },
        {
          "internalType": "bytes32",
          "name": "",
          "type": "bytes32"
        }
      ],
      "name": "nextNonce",
      "outputs": [
        {
          "internalType": "uint64",
          "name": "nonce",
          "type": "uint64"
        }
      ],
      "stateMutability": "view",
      "type": "function"
    },
    {
      "inputs": [],
      "name": "oAppVersion",
      "outputs": [
        {
          "internalType": "uint64",
          "name": "senderVersion",
          "type": "uint64"
        },
        {
          "internalType": "uint64",
          "name": "receiverVersion",
          "type": "uint64"
        }
      ],
      "stateMutability": "pure",
      "type": "function"
    },
    {
      "inputs": [],
      "name": "owner",
      "outputs": [
        {
          "internalType": "address",
          "name": "",
          "type": "address"
        }
      ],
      "stateMutability": "view",
      "type": "function"
    },
    {
      "inputs": [
        {
          "internalType": "uint32",
          "name": "eid",
          "type": "uint32"
        }
      ],
      "name": "peers",
      "outputs": [
        {
          "internalType": "bytes32",
          "name": "peer",
          "type": "bytes32"
        }
      ],
      "stateMutability": "view",
      "type": "function"
    },
    {
      "inputs": [
        {
          "internalType": "uint32",
          "name": "_dstEid",
          "type": "uint32"
        },
        {
          "internalType": "address",
          "name": "_to",
          "type": "address"
        },
        {
          "internalType": "uint256",
          "name": "_amount",
          "type": "uint256"
        },
        {
          "internalType": "uint256",
          "name": "_id",
          "type": "uint256"
        },
        {
          "internalType": "bytes",
          "name": "_options",
          "type": "bytes"
        },
        {
          "internalType": "bool",
          "name": "_payInLzToken",
          "type": "bool"
        }
      ],
      "name": "quote",
      "outputs": [
        {
          "components": [
            {
              "internalType": "uint256",
              "name": "nativeFee",
              "type": "uint256"
            },
            {
              "internalType": "uint256",
              "name": "lzTokenFee",
              "type": "uint256"
            }
          ],
          "internalType": "struct MessagingFee",
          "name": "fee",
          "type": "tuple"
        }
      ],
      "stateMutability": "view",
      "type": "function"
    },
    {
      "inputs": [],
      "name": "renounceOwnership",
      "outputs": [],
      "stateMutability": "nonpayable",
      "type": "function"
    },
    {
      "inputs": [
        {
          "internalType": "address",
          "name": "_delegate",
          "type": "address"
        }
      ],
      "name": "setDelegate",
      "outputs": [],
      "stateMutability": "nonpayable",
      "type": "function"
    },
    {
      "inputs": [
        {
          "internalType": "bool",
          "name": "_open",
          "type": "bool"
        }
      ],
      "name": "setOpen",
      "outputs": [],
      "stateMutability": "nonpayable",
      "type": "function"
    },
    {
      "inputs": [
        {
          "internalType": "uint32",
          "name": "_eid",
          "type": "uint32"
        },
        {
          "internalType": "bytes32",
          "name": "_peer",
          "type": "bytes32"
        }
      ],
      "name": "setPeer",
      "outputs": [],
      "stateMutability": "nonpayable",
      "type": "function"
    },
    {
      "inputs": [
        {
          "internalType": "address",
          "name": "newOwner",
          "type": "address"
        }
      ],
      "name": "transferOwnership",
      "outputs": [],
      "stateMutability": "nonpayable",
      "type": "function"
    }
  ],
  "transactionHash": "0x701c2c9bc3dace97978907054e82879442568579f6a4b582fed01aae8c2c0137",
  "args": [
    "0x6EDCE65403992e310A62460808c4b910D972f10f",
    "0x2F8E036baE50E25343BF503562C020EF6DAD4dCF",
    "0x78a3f816a8e26af8c09F6Da3995Ee19bd69bf7fF"
  ],
  "numDeployments": 1,
  "solcInputHash": "4de3d7a67608bc490c4f095b40f9fcfd",
  "bytecode": "0x60a06040526002805460ff191660011790553480156200001e57600080fd5b5060405162001929380380620019298339810160408190526200004191620001d7565b82828181806001600160a01b0381166200007557604051631e4fbdf760e01b81526000600482015260240160405180910390fd5b62000080816200016e565b506001600160a01b038083166080528116620000af57604051632d618d8160e21b815260040160405180910390fd5b60805160405163ca5eb5e160e01b81526001600160a01b0383811660048301529091169063ca5eb5e190602401600060405180830381600087803b158015620000f757600080fd5b505af11580156200010c573d6000803e3d6000fd5b5050600380546001810182556000919091527fc2575a0e9e593c00f959f8c92f12db2869c3395a3b0502d05e2516446f71f85b0180546001600160a01b0319166001600160a01b039890981697909717909655506200022b9650505050505050565b600080546001600160a01b038381166001600160a01b0319831681178455604051919092169283917f8be0079c531659141344cd1fd0a4f28419497f9722a3daafe3b4186f6b6457e09190a35050565b6001600160a01b0381168114620001d457600080fd5b50565b600080600060608486031215620001ed57600080fd5b8351620001fa81620001be565b60208501519093506200020d81620001be565b60408501519092506200022081620001be565b809150509250925092565b6080516116b86200027160003960008181610191015281816103a0015281816105af01528181610aae01528181610bac01528181610cb00152610d6901526116b86000f3fe6080604052600436106100fe5760003560e01c80637d25a05e11610095578063ca5eb5e111610064578063ca5eb5e1146102fe578063cf35bdd01461031e578063f2fde38b1461033e578063f73e3f5a1461035e578063ff7bd03d1461037e57600080fd5b80637d25a05e1461022d57806382413eac146102665780638da5cb5b146102a5578063bb0b6a53146102c357600080fd5b80635e280f11116100d15780635e280f111461017f5780636fdca5e0146101cb578063715018a6146101eb5780637b8c47bb1461020057600080fd5b806313137d651461010357806317442b7014610118578063298410e51461013f5780633400288b1461015f575b600080fd5b61011661011136600461101f565b61039e565b005b34801561012457600080fd5b50604080516001815260026020820152015b60405180910390f35b34801561014b57600080fd5b5061011661015a3660046110bf565b61045e565b34801561016b57600080fd5b5061011661017a3660046110f5565b6104b8565b34801561018b57600080fd5b506101b37f000000000000000000000000000000000000000000000000000000000000000081565b6040516001600160a01b039091168152602001610136565b3480156101d757600080fd5b506101166101e636600461112d565b610515565b3480156101f757600080fd5b50610116610530565b34801561020c57600080fd5b5061022061021b366004611216565b610544565b604051610136919061129d565b34801561023957600080fd5b5061024d6102483660046110f5565b61057f565b60405167ffffffffffffffff9091168152602001610136565b34801561027257600080fd5b506102956102813660046112b4565b6001600160a01b0381163014949350505050565b6040519015158152602001610136565b3480156102b157600080fd5b506000546001600160a01b03166101b3565b3480156102cf57600080fd5b506102f06102de36600461131b565b60016020526000908152604090205481565b604051908152602001610136565b34801561030a57600080fd5b506101166103193660046110bf565b610588565b34801561032a57600080fd5b506101b3610339366004611336565b61060e565b34801561034a57600080fd5b506101166103593660046110bf565b610638565b61037161036c36600461134f565b610676565b60405161013691906113c3565b34801561038a57600080fd5b50610295610399366004611406565b610831565b7f00000000000000000000000000000000000000000000000000000000000000006001600160a01b031633146103ee576040516391ac5e4f60e01b81523360048201526024015b60405180910390fd5b6020870180359061040890610403908a61131b565b610867565b146104465761041a602088018861131b565b60405163309afaf360e21b815263ffffffff9091166004820152602088013560248201526044016103e5565b610455878787878787876108a3565b50505050505050565b6104666109c7565b600380546001810182556000919091527fc2575a0e9e593c00f959f8c92f12db2869c3395a3b0502d05e2516446f71f85b0180546001600160a01b0319166001600160a01b0392909216919091179055565b6104c06109c7565b63ffffffff8216600081815260016020908152604091829020849055815192835282018390527f238399d427b947898edb290f5ff0f9109849b1c3ba196a42e35f00c50a54b98b910160405180910390a15050565b61051d6109c7565b6002805460ff1916911515919091179055565b6105386109c7565b61054260006109f4565b565b60408051808201909152600080825260208201526000610565878787610a44565b905061057388828686610a98565b98975050505050505050565b60005b92915050565b6105906109c7565b60405163ca5eb5e160e01b81526001600160a01b0382811660048301527f0000000000000000000000000000000000000000000000000000000000000000169063ca5eb5e190602401600060405180830381600087803b1580156105f357600080fd5b505af1158015610607573d6000803e3d6000fd5b5050505050565b6003818154811061061e57600080fd5b6000918252602090912001546001600160a01b0316905081565b6106406109c7565b6001600160a01b03811661066a57604051631e4fbdf760e01b8152600060048201526024016103e5565b610673816109f4565b50565b61067e610f61565b60025460ff166106d05760405162461bcd60e51b815260206004820152601860248201527f4272696467653a2062726964676520697320636c6f736564000000000000000060448201526064016103e5565b6000841161072e5760405162461bcd60e51b815260206004820152602560248201527f4272696467653a20616d6f756e74206d75737420626520677265617465722074604482015264068616e20360dc1b60648201526084016103e5565b61075a8661073d878787610a44565b846040518060400160405280348152602001600081525033610b79565b90506003838154811061076f5761076f611422565b600091825260209091200154604051632770a7eb60e21b8152336004820152602481018690526001600160a01b0390911690639dc29fac90604401600060405180830381600087803b1580156107c457600080fd5b505af11580156107d8573d6000803e3d6000fd5b505060408051878152602081018790526001600160a01b038916935063ffffffff8a1692507f4494b5f7943aa72ac9361ef4c34de6292dce3fa5b38b6713856f38be9850ad73910160405180910390a395945050505050565b6000602082018035906001908390610849908661131b565b63ffffffff1681526020810191909152604001600020541492915050565b63ffffffff8116600090815260016020526040812054806105825760405163f6ff4fb760e01b815263ffffffff841660048201526024016103e5565b60006108b185870187611438565b905060008160200151670de0b6b3a76400006108cd919061147c565b905060038260400151815481106108e6576108e6611422565b60009182526020909120015482516040516340c10f1960e01b81526001600160a01b039182166004820152602481018490529116906340c10f1990604401600060405180830381600087803b15801561093e57600080fd5b505af1158015610952573d6000803e3d6000fd5b505083516001600160a01b03169150610970905060208b018b61131b565b63ffffffff167fc524b6c143c84db5eaa3c2b76fabb5be4c2ba00ad97d3055b1a6a9a548dc498b8385604001516040516109b4929190918252602082015260400190565b60405180910390a3505050505050505050565b6000546001600160a01b031633146105425760405163118cdaa760e01b81523360048201526024016103e5565b600080546001600160a01b038381166001600160a01b0319831681178455604051919092169283917f8be0079c531659141344cd1fd0a4f28419497f9722a3daafe3b4186f6b6457e09190a35050565b60408051606080820183526001600160a01b038616808352602080840187815293850186815285519182019290925292518385015251828201528251808303909101815260809091019091525b9392505050565b60408051808201909152600080825260208201527f00000000000000000000000000000000000000000000000000000000000000006001600160a01b031663ddc28c586040518060a001604052808863ffffffff168152602001610afb89610867565b8152602001878152602001868152602001851515815250306040518363ffffffff1660e01b8152600401610b309291906114f1565b6040805180830381865afa158015610b4c573d6000803e3d6000fd5b505050506040513d601f19601f82011682018060405250810190610b7091906115b9565b95945050505050565b610b81610f61565b6000610b908460000151610c84565b602085015190915015610baa57610baa8460200151610cac565b7f00000000000000000000000000000000000000000000000000000000000000006001600160a01b0316632637a450826040518060a001604052808b63ffffffff168152602001610bfa8c610867565b81526020018a815260200189815260200160008960200151111515815250866040518463ffffffff1660e01b8152600401610c369291906114f1565b60806040518083038185885af1158015610c54573d6000803e3d6000fd5b50505050506040513d601f19601f82011682018060405250810190610c7991906115d5565b979650505050505050565b6000813414610ca8576040516304fb820960e51b81523460048201526024016103e5565b5090565b60007f00000000000000000000000000000000000000000000000000000000000000006001600160a01b031663e4fe1d946040518163ffffffff1660e01b8152600401602060405180830381865afa158015610d0c573d6000803e3d6000fd5b505050506040513d601f19601f82011682018060405250810190610d30919061162c565b90506001600160a01b038116610d59576040516329b99a9560e11b815260040160405180910390fd5b610d8e6001600160a01b038216337f000000000000000000000000000000000000000000000000000000000000000085610d92565b5050565b604080516001600160a01b0385811660248301528416604482015260648082018490528251808303909101815260849091019091526020810180516001600160e01b03166323b872dd60e01b179052610dec908590610df2565b50505050565b6000610e076001600160a01b03841683610e5a565b90508051600014158015610e2c575080806020019051810190610e2a9190611649565b155b15610e5557604051635274afe760e01b81526001600160a01b03841660048201526024016103e5565b505050565b6060610a918383600084600080856001600160a01b03168486604051610e809190611666565b60006040518083038185875af1925050503d8060008114610ebd576040519150601f19603f3d011682016040523d82523d6000602084013e610ec2565b606091505b5091509150610ed2868383610edc565b9695505050505050565b606082610ef157610eec82610f38565b610a91565b8151158015610f0857506001600160a01b0384163b155b15610f3157604051639996b31560e01b81526001600160a01b03851660048201526024016103e5565b5080610a91565b805115610f485780518082602001fd5b604051630a12f52160e11b815260040160405180910390fd5b604051806060016040528060008019168152602001600067ffffffffffffffff168152602001610fa4604051806040016040528060008152602001600081525090565b905290565b600060608284031215610fbb57600080fd5b50919050565b60008083601f840112610fd357600080fd5b50813567ffffffffffffffff811115610feb57600080fd5b60208301915083602082850101111561100357600080fd5b9250929050565b6001600160a01b038116811461067357600080fd5b600080600080600080600060e0888a03121561103a57600080fd5b6110448989610fa9565b965060608801359550608088013567ffffffffffffffff8082111561106857600080fd5b6110748b838c01610fc1565b909750955060a08a013591506110898261100a565b90935060c0890135908082111561109f57600080fd5b506110ac8a828b01610fc1565b989b979a50959850939692959293505050565b6000602082840312156110d157600080fd5b8135610a918161100a565b803563ffffffff811681146110f057600080fd5b919050565b6000806040838503121561110857600080fd5b611111836110dc565b946020939093013593505050565b801515811461067357600080fd5b60006020828403121561113f57600080fd5b8135610a918161111f565b634e487b7160e01b600052604160045260246000fd5b6040516060810167ffffffffffffffff811182821017156111835761118361114a565b60405290565b600082601f83011261119a57600080fd5b813567ffffffffffffffff808211156111b5576111b561114a565b604051601f8301601f19908116603f011681019082821181831017156111dd576111dd61114a565b816040528381528660208588010111156111f657600080fd5b836020870160208301376000602085830101528094505050505092915050565b60008060008060008060c0878903121561122f57600080fd5b611238876110dc565b955060208701356112488161100a565b94506040870135935060608701359250608087013567ffffffffffffffff81111561127257600080fd5b61127e89828a01611189565b92505060a087013561128f8161111f565b809150509295509295509295565b815181526020808301519082015260408101610582565b60008060008060a085870312156112ca57600080fd5b6112d48686610fa9565b9350606085013567ffffffffffffffff8111156112f057600080fd5b6112fc87828801610fc1565b90945092505060808501356113108161100a565b939692955090935050565b60006020828403121561132d57600080fd5b610a91826110dc565b60006020828403121561134857600080fd5b5035919050565b600080600080600060a0868803121561136757600080fd5b611370866110dc565b945060208601356113808161100a565b93506040860135925060608601359150608086013567ffffffffffffffff8111156113aa57600080fd5b6113b688828901611189565b9150509295509295909350565b60006080820190508251825267ffffffffffffffff602084015116602083015260408301516113ff604084018280518252602090810151910152565b5092915050565b60006060828403121561141857600080fd5b610a918383610fa9565b634e487b7160e01b600052603260045260246000fd5b60006060828403121561144a57600080fd5b611452611160565b823561145d8161100a565b8152602083810135908201526040928301359281019290925250919050565b808202811582820484141761058257634e487b7160e01b600052601160045260246000fd5b60005b838110156114bc5781810151838201526020016114a4565b50506000910152565b600081518084526114dd8160208601602086016114a1565b601f01601f19169290920160200192915050565b6040815263ffffffff8351166040820152602083015160608201526000604084015160a0608084015261152760e08401826114c5565b90506060850151603f198483030160a085015261154482826114c5565b60809690960151151560c08501525050506001600160a01b039190911660209091015290565b60006040828403121561157c57600080fd5b6040516040810181811067ffffffffffffffff8211171561159f5761159f61114a565b604052825181526020928301519281019290925250919050565b6000604082840312156115cb57600080fd5b610a91838361156a565b6000608082840312156115e757600080fd5b6115ef611160565b82518152602083015167ffffffffffffffff8116811461160e57600080fd5b6020820152611620846040850161156a565b60408201529392505050565b60006020828403121561163e57600080fd5b8151610a918161100a565b60006020828403121561165b57600080fd5b8151610a918161111f565b600082516116788184602087016114a1565b919091019291505056fea2646970667358221220256d406b94ce0207f4338f60f7f9d44b7219db56420cabed0f1e5c6d8243ccfe64736f6c63430008160033",
  "devdoc": {
    "errors": {
      "AddressEmptyCode(address)": [
        {
          "details": "There's no code at `target` (it is not a contract)."
        }
      ],
      "AddressInsufficientBalance(address)": [
        {
          "details": "The ETH balance of the account is not enough to perform the operation."
        }
      ],
      "FailedInnerCall()": [
        {
          "details": "A call to an address target failed. The target may have reverted."
        }
      ],
      "OwnableInvalidOwner(address)": [
        {
          "details": "The owner is not a valid owner account. (eg. `address(0)`)"
        }
      ],
      "OwnableUnauthorizedAccount(address)": [
        {
          "details": "The caller account is not authorized to perform an operation."
        }
      ],
      "SafeERC20FailedOperation(address)": [
        {
          "details": "An operation with an ERC20 token failed."
        }
      ]
    },
    "kind": "dev",
    "methods": {
      "allowInitializePath((uint32,bytes32,uint64))": {
        "details": "This indicates to the endpoint that the OApp has enabled msgs for this particular path to be received.This defaults to assuming if a peer has been set, its initialized. Can be overridden by the OApp if there is other logic to determine this.",
        "params": {
          "origin": "The origin information containing the source endpoint and sender address."
        },
        "returns": {
          "_0": "Whether the path has been initialized."
        }
      },
      "bridgeToken(uint32,address,uint256,uint256,bytes)": {
        "details": "Encodes the message as bytes and sends it using the `_lzSend` internal function.",
        "params": {
          "_amount": "The asset amount you wanna bridge.",
          "_dstEid": "The endpoint ID of the destination chain.",
          "_to": "The address of whom you want to bridge the assets to."
        },
        "returns": {
          "receipt": "A `MessagingReceipt` struct containing details of the message sent."
        }
      },
      "isComposeMsgSender((uint32,bytes32,uint64),bytes,address)": {
        "details": "_origin The origin information containing the source endpoint and sender address.  - srcEid: The source chain endpoint ID.  - sender: The sender address on the src chain.  - nonce: The nonce of the message._message The lzReceive payload.Applications can optionally choose to implement separate composeMsg senders that are NOT the bridging layer.The default sender IS the OAppReceiver implementer.",
        "params": {
          "_sender": "The sender address."
        },
        "returns": {
          "_0": "isSender Is a valid sender."
        }
      },
      "lzReceive((uint32,bytes32,uint64),bytes32,bytes,address,bytes)": {
        "details": "Entry point for receiving messages or packets from the endpoint.Entry point for receiving msg/packet from the LayerZero endpoint.",
        "params": {
          "_executor": "The address of the executor for the received message.",
          "_extraData": "Additional arbitrary data provided by the corresponding executor.",
          "_guid": "The unique identifier for the received LayerZero message.",
          "_message": "The payload of the received message.",
          "_origin": "The origin information containing the source endpoint and sender address.  - srcEid: The source chain endpoint ID.  - sender: The sender address on the src chain.  - nonce: The nonce of the message."
        }
      },
      "nextNonce(uint32,bytes32)": {
        "details": "_srcEid The source endpoint ID._sender The sender address.The path nonce starts from 1. If 0 is returned it means that there is NO nonce ordered enforcement.Is required by the off-chain executor to determine the OApp expects msg execution is ordered.This is also enforced by the OApp.By default this is NOT enabled. ie. nextNonce is hardcoded to return 0.",
        "returns": {
          "nonce": "The next nonce."
        }
      },
      "oAppVersion()": {
        "returns": {
          "receiverVersion": "The version of the OAppReceiver.sol implementation.",
          "senderVersion": "The version of the OAppSender.sol implementation."
        }
      },
      "owner()": {
        "details": "Returns the address of the current owner."
      },
      "quote(uint32,address,uint256,uint256,bytes,bool)": {
        "params": {
          "_amount": "The asset amount you wanna bridge.",
          "_dstEid": "Destination chain's endpoint ID.",
          "_id": "The asset index that you want to bridge.",
          "_options": "Message execution options (e.g., for sending gas to destination).",
          "_payInLzToken": "Whether to return fee in ZRO token.",
          "_to": "The address of whom you want to bridge the assets to."
        },
        "returns": {
          "fee": "A `MessagingFee` struct containing the calculated gas fee in either the native token or ZRO token."
        }
      },
      "renounceOwnership()": {
        "details": "Leaves the contract without owner. It will not be possible to call `onlyOwner` functions. Can only be called by the current owner. NOTE: Renouncing ownership will leave the contract without an owner, thereby disabling any functionality that is only available to the owner."
      },
      "setDelegate(address)": {
        "details": "Only the owner/admin of the OApp can call this function.Provides the ability for a delegate to set configs, on behalf of the OApp, directly on the Endpoint contract.",
        "params": {
          "_delegate": "The address of the delegate to be set."
        }
      },
      "setPeer(uint32,bytes32)": {
        "details": "Only the owner/admin of the OApp can call this function.Indicates that the peer is trusted to send LayerZero messages to this OApp.Set this to bytes32(0) to remove the peer address.Peer is a bytes32 to accommodate non-evm chains.",
        "params": {
          "_eid": "The endpoint ID.",
          "_peer": "The address of the peer to be associated with the corresponding endpoint."
        }
      },
      "transferOwnership(address)": {
        "details": "Transfers ownership of the contract to a new account (`newOwner`). Can only be called by the current owner."
      }
    },
    "version": 1
  },
  "userdoc": {
    "kind": "user",
    "methods": {
      "allowInitializePath((uint32,bytes32,uint64))": {
        "notice": "Checks if the path initialization is allowed based on the provided origin."
      },
      "bridgeToken(uint32,address,uint256,uint256,bytes)": {
        "notice": "Bridge token from the source chain to a destination chain."
      },
      "endpoint()": {
        "notice": "Retrieves the LayerZero endpoint associated with the OApp."
      },
      "isComposeMsgSender((uint32,bytes32,uint64),bytes,address)": {
        "notice": "Indicates whether an address is an approved composeMsg sender to the Endpoint."
      },
      "nextNonce(uint32,bytes32)": {
        "notice": "Retrieves the next nonce for a given source endpoint and sender address."
      },
      "oAppVersion()": {
        "notice": "Retrieves the OApp version information."
      },
      "peers(uint32)": {
        "notice": "Retrieves the peer (OApp) associated with a corresponding endpoint."
      },
      "quote(uint32,address,uint256,uint256,bytes,bool)": {
        "notice": "Quotes the gas needed to pay for the full omnichain transaction in native gas or ZRO token."
      },
      "setDelegate(address)": {
        "notice": "Sets the delegate address for the OApp."
      },
      "setPeer(uint32,bytes32)": {
        "notice": "Sets the peer address (OApp instance) for a corresponding endpoint."
      }
    },
    "version": 1
  },
  "storageLayout": {
    "storage": [
      {
        "astId": 1313,
        "contract": "contracts/BaseBridge.sol:BaseBridge",
        "label": "_owner",
        "offset": 0,
        "slot": "0",
        "type": "t_address"
      },
      {
        "astId": 64,
        "contract": "contracts/BaseBridge.sol:BaseBridge",
        "label": "peers",
        "offset": 0,
        "slot": "1",
        "type": "t_mapping(t_uint32,t_bytes32)"
      },
      {
        "astId": 2185,
        "contract": "contracts/BaseBridge.sol:BaseBridge",
        "label": "open",
        "offset": 0,
        "slot": "2",
        "type": "t_bool"
      },
      {
        "astId": 2189,
        "contract": "contracts/BaseBridge.sol:BaseBridge",
        "label": "assets",
        "offset": 0,
        "slot": "3",
        "type": "t_array(t_contract(IERC20)1530)dyn_storage"
      }
    ],
    "types": {
      "t_address": {
        "encoding": "inplace",
        "label": "address",
        "numberOfBytes": "20"
      },
      "t_array(t_contract(IERC20)1530)dyn_storage": {
        "base": "t_contract(IERC20)1530",
        "encoding": "dynamic_array",
        "label": "contract IERC20[]",
        "numberOfBytes": "32"
      },
      "t_bool": {
        "encoding": "inplace",
        "label": "bool",
        "numberOfBytes": "1"
      },
      "t_bytes32": {
        "encoding": "inplace",
        "label": "bytes32",
        "numberOfBytes": "32"
      },
      "t_contract(IERC20)1530": {
        "encoding": "inplace",
        "label": "contract IERC20",
        "numberOfBytes": "20"
      },
      "t_mapping(t_uint32,t_bytes32)": {
        "encoding": "mapping",
        "key": "t_uint32",
        "label": "mapping(uint32 => bytes32)",
        "numberOfBytes": "32",
        "value": "t_bytes32"
      },
      "t_uint32": {
        "encoding": "inplace",
        "label": "uint32",
        "numberOfBytes": "4"
      }
    }
  }
}